{
  "_format": "hh-sol-artifact-1",
  "contractName": "StreamStake",
  "sourceName": "contracts/StreamStake.sol",
  "abi": [
    {
      "inputs": [],
      "stateMutability": "nonpayable",
      "type": "constructor"
    },
    {
      "inputs": [
        {
          "internalType": "address",
          "name": "owner",
          "type": "address"
        }
      ],
      "name": "OwnableInvalidOwner",
      "type": "error"
    },
    {
      "inputs": [
        {
          "internalType": "address",
          "name": "account",
          "type": "address"
        }
      ],
      "name": "OwnableUnauthorizedAccount",
      "type": "error"
    },
    {
      "anonymous": false,
      "inputs": [
        {
          "indexed": false,
          "internalType": "string",
          "name": "lobbyId",
          "type": "string"
        },
        {
          "indexed": false,
          "internalType": "string",
          "name": "roundId",
          "type": "string"
        },
        {
          "indexed": true,
          "internalType": "address",
          "name": "user",
          "type": "address"
        },
        {
          "indexed": false,
          "internalType": "enum StreamStake.Side",
          "name": "side",
          "type": "uint8"
        },
        {
          "indexed": false,
          "internalType": "uint256",
          "name": "amount",
          "type": "uint256"
        }
      ],
      "name": "BetPlaced",
      "type": "event"
    },
    {
      "anonymous": false,
      "inputs": [
        {
          "indexed": true,
          "internalType": "address",
          "name": "previousOwner",
          "type": "address"
        },
        {
          "indexed": true,
          "internalType": "address",
          "name": "newOwner",
          "type": "address"
        }
      ],
      "name": "OwnershipTransferred",
      "type": "event"
    },
    {
      "anonymous": false,
      "inputs": [
        {
          "indexed": false,
          "internalType": "string",
          "name": "lobbyId",
          "type": "string"
        },
        {
          "indexed": false,
          "internalType": "string",
          "name": "roundId",
          "type": "string"
        },
        {
          "indexed": false,
          "internalType": "enum StreamStake.Side",
          "name": "winner",
          "type": "uint8"
        },
        {
          "indexed": false,
          "internalType": "uint256",
          "name": "totalPool",
          "type": "uint256"
        }
      ],
      "name": "RoundResolved",
      "type": "event"
    },
    {
      "anonymous": false,
      "inputs": [
        {
          "indexed": false,
          "internalType": "string",
          "name": "lobbyId",
          "type": "string"
        },
        {
          "indexed": false,
          "internalType": "string",
          "name": "roundId",
          "type": "string"
        },
        {
          "indexed": true,
          "internalType": "address",
          "name": "user",
          "type": "address"
        },
        {
          "indexed": false,
          "internalType": "uint256",
          "name": "amount",
          "type": "uint256"
        }
      ],
      "name": "WinningsClaimed",
      "type": "event"
    },
    {
      "inputs": [
        {
          "internalType": "string",
          "name": "lobbyId",
          "type": "string"
        },
        {
          "internalType": "string",
          "name": "roundId",
          "type": "string"
        }
      ],
      "name": "claimWinnings",
      "outputs": [],
      "stateMutability": "nonpayable",
      "type": "function"
    },
    {
      "inputs": [
        {
          "internalType": "string",
          "name": "lobbyId",
          "type": "string"
        },
        {
          "internalType": "string",
          "name": "roundId",
          "type": "string"
        }
      ],
      "name": "getRoundPools",
      "outputs": [
        {
          "internalType": "uint256",
          "name": "blue",
          "type": "uint256"
        },
        {
          "internalType": "uint256",
          "name": "red",
          "type": "uint256"
        },
        {
          "internalType": "enum StreamStake.Status",
          "name": "status",
          "type": "uint8"
        }
      ],
      "stateMutability": "view",
      "type": "function"
    },
    {
      "inputs": [
        {
          "internalType": "string",
          "name": "",
          "type": "string"
        },
        {
          "internalType": "string",
          "name": "",
          "type": "string"
        }
      ],
      "name": "lobbies",
      "outputs": [
        {
          "internalType": "uint256",
          "name": "totalPoolBlue",
          "type": "uint256"
        },
        {
          "internalType": "uint256",
          "name": "totalPoolRed",
          "type": "uint256"
        },
        {
          "internalType": "enum StreamStake.Status",
          "name": "status",
          "type": "uint8"
        },
        {
          "internalType": "enum StreamStake.Side",
          "name": "winner",
          "type": "uint8"
        },
        {
          "internalType": "bool",
          "name": "exists",
          "type": "bool"
        }
      ],
      "stateMutability": "view",
      "type": "function"
    },
    {
      "inputs": [],
      "name": "oracle",
      "outputs": [
        {
          "internalType": "address",
          "name": "",
          "type": "address"
        }
      ],
      "stateMutability": "view",
      "type": "function"
    },
    {
      "inputs": [],
      "name": "owner",
      "outputs": [
        {
          "internalType": "address",
          "name": "",
          "type": "address"
        }
      ],
      "stateMutability": "view",
      "type": "function"
    },
    {
      "inputs": [
        {
          "internalType": "string",
          "name": "lobbyId",
          "type": "string"
        },
        {
          "internalType": "string",
          "name": "roundId",
          "type": "string"
        },
        {
          "internalType": "enum StreamStake.Side",
          "name": "side",
          "type": "uint8"
        }
      ],
      "name": "placeBet",
      "outputs": [],
      "stateMutability": "payable",
      "type": "function"
    },
    {
      "inputs": [],
      "name": "renounceOwnership",
      "outputs": [],
      "stateMutability": "nonpayable",
      "type": "function"
    },
    {
      "inputs": [
        {
          "internalType": "string",
          "name": "lobbyId",
          "type": "string"
        },
        {
          "internalType": "string",
          "name": "roundId",
          "type": "string"
        },
        {
          "internalType": "enum StreamStake.Side",
          "name": "winner",
          "type": "uint8"
        }
      ],
      "name": "resolveRound",
      "outputs": [],
      "stateMutability": "nonpayable",
      "type": "function"
    },
    {
      "inputs": [
        {
          "internalType": "address",
          "name": "newOwner",
          "type": "address"
        }
      ],
      "name": "transferOwnership",
      "outputs": [],
      "stateMutability": "nonpayable",
      "type": "function"
    }
  ],
  "bytecode": "0x60806040523480156200001157600080fd5b5033600073ffffffffffffffffffffffffffffffffffffffff168173ffffffffffffffffffffffffffffffffffffffff1603620000885760006040517f1e4fbdf70000000000000000000000000000000000000000000000000000000081526004016200007f9190620001ea565b60405180910390fd5b6200009981620000e160201b60201c565b5033600260006101000a81548173ffffffffffffffffffffffffffffffffffffffff021916908373ffffffffffffffffffffffffffffffffffffffff16021790555062000207565b60008060009054906101000a900473ffffffffffffffffffffffffffffffffffffffff169050816000806101000a81548173ffffffffffffffffffffffffffffffffffffffff021916908373ffffffffffffffffffffffffffffffffffffffff1602179055508173ffffffffffffffffffffffffffffffffffffffff168173ffffffffffffffffffffffffffffffffffffffff167f8be0079c531659141344cd1fd0a4f28419497f9722a3daafe3b4186f6b6457e060405160405180910390a35050565b600073ffffffffffffffffffffffffffffffffffffffff82169050919050565b6000620001d282620001a5565b9050919050565b620001e481620001c5565b82525050565b6000602082019050620002016000830184620001d9565b92915050565b611bdb80620002176000396000f3fe6080604052600436106100865760003560e01c806393d46f8b1161005957806393d46f8b14610139578063b36856b414610155578063df269f5614610194578063e3842ee0146101bd578063f2fde38b146101e657610086565b806324fec3041461008b578063715018a6146100cc5780637dc0d1d0146100e35780638da5cb5b1461010e575b600080fd5b34801561009757600080fd5b506100b260048036038101906100ad91906110b6565b61020f565b6040516100c3959493929190611221565b60405180910390f35b3480156100d857600080fd5b506100e16102a5565b005b3480156100ef57600080fd5b506100f86102b9565b60405161010591906112b5565b60405180910390f35b34801561011a57600080fd5b506101236102df565b60405161013091906112b5565b60405180910390f35b610153600480360381019061014e9190611355565b610308565b005b34801561016157600080fd5b5061017c600480360381019061017791906113ea565b610645565b60405161018b9392919061146b565b60405180910390f35b3480156101a057600080fd5b506101bb60048036038101906101b69190611355565b6106b8565b005b3480156101c957600080fd5b506101e460048036038101906101df91906113ea565b610945565b005b3480156101f257600080fd5b5061020d600480360381019061020891906114ce565b610d83565b005b60018280516020810182018051848252602083016020850120818352809550505050505081805160208101820180518482526020830160208501208183528095505050505050600091509150508060000154908060010154908060020160009054906101000a900460ff16908060020160019054906101000a900460ff16908060020160029054906101000a900460ff16905085565b6102ad610e09565b6102b76000610e90565b565b600260009054906101000a900473ffffffffffffffffffffffffffffffffffffffff1681565b60008060009054906101000a900473ffffffffffffffffffffffffffffffffffffffff16905090565b6000341161034b576040517f08c379a000000000000000000000000000000000000000000000000000000000815260040161034290611558565b60405180910390fd5b6000600281111561035f5761035e611147565b5b81600281111561037257610371611147565b5b036103b2576040517f08c379a00000000000000000000000000000000000000000000000000000000081526004016103a9906115c4565b60405180910390fd5b6000600186866040516103c6929190611614565b908152602001604051809103902084846040516103e4929190611614565b908152602001604051809103902090508060020160029054906101000a900460ff166104555760018160020160026101000a81548160ff02191690831515021790555060008160020160006101000a81548160ff0219169083600281111561044f5761044e611147565b5b02179055505b6000600281111561046957610468611147565b5b8160020160009054906101000a900460ff16600281111561048d5761048c611147565b5b146104cd576040517f08c379a00000000000000000000000000000000000000000000000000000000081526004016104c490611679565b60405180910390fd5b600160028111156104e1576104e0611147565b5b8260028111156104f4576104f3611147565b5b0361057157348160030160003373ffffffffffffffffffffffffffffffffffffffff1673ffffffffffffffffffffffffffffffffffffffff168152602001908152602001600020600082825461054a91906116c8565b925050819055503481600001600082825461056591906116c8565b925050819055506105e5565b348160040160003373ffffffffffffffffffffffffffffffffffffffff1673ffffffffffffffffffffffffffffffffffffffff16815260200190815260200160002060008282546105c291906116c8565b92505081905550348160010160008282546105dd91906116c8565b925050819055505b3373ffffffffffffffffffffffffffffffffffffffff167febec724d65ee44fc3c171f514690b08e559dfc671a1d559872e38829f026c65487878787873460405161063596959493929190611729565b60405180910390a2505050505050565b6000806000806001888860405161065d929190611614565b9081526020016040518091039020868660405161067b929190611614565b90815260200160405180910390209050806000015481600101548260020160009054906101000a900460ff16935093509350509450945094915050565b600260009054906101000a900473ffffffffffffffffffffffffffffffffffffffff1673ffffffffffffffffffffffffffffffffffffffff163373ffffffffffffffffffffffffffffffffffffffff16148061074657506107176102df565b73ffffffffffffffffffffffffffffffffffffffff163373ffffffffffffffffffffffffffffffffffffffff16145b610785576040517f08c379a000000000000000000000000000000000000000000000000000000000815260040161077c906117cc565b60405180910390fd5b600060018686604051610799929190611614565b908152602001604051809103902084846040516107b7929190611614565b908152602001604051809103902090508060020160029054906101000a900460ff16610818576040517f08c379a000000000000000000000000000000000000000000000000000000000815260040161080f90611838565b60405180910390fd5b6000600281111561082c5761082b611147565b5b8160020160009054906101000a900460ff1660028111156108505761084f611147565b5b14610890576040517f08c379a0000000000000000000000000000000000000000000000000000000008152600401610887906118a4565b60405180910390fd5b818160020160016101000a81548160ff021916908360028111156108b7576108b6611147565b5b021790555060018160020160006101000a81548160ff021916908360028111156108e4576108e3611147565b5b02179055507f092aaa6cf96faa5344d260a830eacddcb9be297fa42e0cd20028c1a66deef83886868686868660010154876000015461092391906116c8565b60405161093596959493929190611729565b60405180910390a1505050505050565b600060018585604051610959929190611614565b90815260200160405180910390208383604051610977929190611614565b908152602001604051809103902090506001600281111561099b5761099a611147565b5b8160020160009054906101000a900460ff1660028111156109bf576109be611147565b5b146109ff576040517f08c379a00000000000000000000000000000000000000000000000000000000081526004016109f690611910565b60405180910390fd5b60008060008060016002811115610a1957610a18611147565b5b8560020160019054906101000a900460ff166002811115610a3d57610a3c611147565b5b03610ae0578460030160003373ffffffffffffffffffffffffffffffffffffffff1673ffffffffffffffffffffffffffffffffffffffff168152602001908152602001600020549250846000015491508460010154905060008560030160003373ffffffffffffffffffffffffffffffffffffffff1673ffffffffffffffffffffffffffffffffffffffff16815260200190815260200160002081905550610bf6565b600280811115610af357610af2611147565b5b8560020160019054906101000a900460ff166002811115610b1757610b16611147565b5b03610bba578460040160003373ffffffffffffffffffffffffffffffffffffffff1673ffffffffffffffffffffffffffffffffffffffff168152602001908152602001600020549250846001015491508460000154905060008560040160003373ffffffffffffffffffffffffffffffffffffffff1673ffffffffffffffffffffffffffffffffffffffff16815260200190815260200160002081905550610bf5565b6040517f08c379a0000000000000000000000000000000000000000000000000000000008152600401610bec9061197c565b60405180910390fd5b5b60008311610c39576040517f08c379a0000000000000000000000000000000000000000000000000000000008152600401610c30906119e8565b60405180910390fd5b6000821115610c715760008183610c5091906116c8565b9050828185610c5f9190611a08565b610c699190611a79565b945050610c75565b8293505b60003373ffffffffffffffffffffffffffffffffffffffff1685604051610c9b90611adb565b60006040518083038185875af1925050503d8060008114610cd8576040519150601f19603f3d011682016040523d82523d6000602084013e610cdd565b606091505b5050905080610d21576040517f08c379a0000000000000000000000000000000000000000000000000000000008152600401610d1890611b3c565b60405180910390fd5b3373ffffffffffffffffffffffffffffffffffffffff167f411587e465ac6e60a8164bd039b9a8b45321ef197811d4bb89bb2a76adc5b9d28b8b8b8b8a604051610d6f959493929190611b5c565b60405180910390a250505050505050505050565b610d8b610e09565b600073ffffffffffffffffffffffffffffffffffffffff168173ffffffffffffffffffffffffffffffffffffffff1603610dfd5760006040517f1e4fbdf7000000000000000000000000000000000000000000000000000000008152600401610df491906112b5565b60405180910390fd5b610e0681610e90565b50565b610e11610f54565b73ffffffffffffffffffffffffffffffffffffffff16610e2f6102df565b73ffffffffffffffffffffffffffffffffffffffff1614610e8e57610e52610f54565b6040517f118cdaa7000000000000000000000000000000000000000000000000000000008152600401610e8591906112b5565b60405180910390fd5b565b60008060009054906101000a900473ffffffffffffffffffffffffffffffffffffffff169050816000806101000a81548173ffffffffffffffffffffffffffffffffffffffff021916908373ffffffffffffffffffffffffffffffffffffffff1602179055508173ffffffffffffffffffffffffffffffffffffffff168173ffffffffffffffffffffffffffffffffffffffff167f8be0079c531659141344cd1fd0a4f28419497f9722a3daafe3b4186f6b6457e060405160405180910390a35050565b600033905090565b6000604051905090565b600080fd5b600080fd5b600080fd5b600080fd5b6000601f19601f8301169050919050565b7f4e487b7100000000000000000000000000000000000000000000000000000000600052604160045260246000fd5b610fc382610f7a565b810181811067ffffffffffffffff82111715610fe257610fe1610f8b565b5b80604052505050565b6000610ff5610f5c565b90506110018282610fba565b919050565b600067ffffffffffffffff82111561102157611020610f8b565b5b61102a82610f7a565b9050602081019050919050565b82818337600083830152505050565b600061105961105484611006565b610feb565b90508281526020810184848401111561107557611074610f75565b5b611080848285611037565b509392505050565b600082601f83011261109d5761109c610f70565b5b81356110ad848260208601611046565b91505092915050565b600080604083850312156110cd576110cc610f66565b5b600083013567ffffffffffffffff8111156110eb576110ea610f6b565b5b6110f785828601611088565b925050602083013567ffffffffffffffff81111561111857611117610f6b565b5b61112485828601611088565b9150509250929050565b6000819050919050565b6111418161112e565b82525050565b7f4e487b7100000000000000000000000000000000000000000000000000000000600052602160045260246000fd5b6003811061118757611186611147565b5b50565b600081905061119882611176565b919050565b60006111a88261118a565b9050919050565b6111b88161119d565b82525050565b600381106111cf576111ce611147565b5b50565b60008190506111e0826111be565b919050565b60006111f0826111d2565b9050919050565b611200816111e5565b82525050565b60008115159050919050565b61121b81611206565b82525050565b600060a0820190506112366000830188611138565b6112436020830187611138565b61125060408301866111af565b61125d60608301856111f7565b61126a6080830184611212565b9695505050505050565b600073ffffffffffffffffffffffffffffffffffffffff82169050919050565b600061129f82611274565b9050919050565b6112af81611294565b82525050565b60006020820190506112ca60008301846112a6565b92915050565b600080fd5b600080fd5b60008083601f8401126112f0576112ef610f70565b5b8235905067ffffffffffffffff81111561130d5761130c6112d0565b5b602083019150836001820283011115611329576113286112d5565b5b9250929050565b6003811061133d57600080fd5b50565b60008135905061134f81611330565b92915050565b60008060008060006060868803121561137157611370610f66565b5b600086013567ffffffffffffffff81111561138f5761138e610f6b565b5b61139b888289016112da565b9550955050602086013567ffffffffffffffff8111156113be576113bd610f6b565b5b6113ca888289016112da565b935093505060406113dd88828901611340565b9150509295509295909350565b6000806000806040858703121561140457611403610f66565b5b600085013567ffffffffffffffff81111561142257611421610f6b565b5b61142e878288016112da565b9450945050602085013567ffffffffffffffff81111561145157611450610f6b565b5b61145d878288016112da565b925092505092959194509250565b60006060820190506114806000830186611138565b61148d6020830185611138565b61149a60408301846111af565b949350505050565b6114ab81611294565b81146114b657600080fd5b50565b6000813590506114c8816114a2565b92915050565b6000602082840312156114e4576114e3610f66565b5b60006114f2848285016114b9565b91505092915050565b600082825260208201905092915050565b7f42657420616d6f756e74206d757374206265203e203000000000000000000000600082015250565b60006115426016836114fb565b915061154d8261150c565b602082019050919050565b6000602082019050818103600083015261157181611535565b9050919050565b7f496e76616c696420736964650000000000000000000000000000000000000000600082015250565b60006115ae600c836114fb565b91506115b982611578565b602082019050919050565b600060208201905081810360008301526115dd816115a1565b9050919050565b600081905092915050565b60006115fb83856115e4565b9350611608838584611037565b82840190509392505050565b60006116218284866115ef565b91508190509392505050565b7f526f756e64206e6f742061637469766500000000000000000000000000000000600082015250565b60006116636010836114fb565b915061166e8261162d565b602082019050919050565b6000602082019050818103600083015261169281611656565b9050919050565b7f4e487b7100000000000000000000000000000000000000000000000000000000600052601160045260246000fd5b60006116d38261112e565b91506116de8361112e565b92508282019050808211156116f6576116f5611699565b5b92915050565b600061170883856114fb565b9350611715838584611037565b61171e83610f7a565b840190509392505050565b6000608082019050818103600083015261174481888a6116fc565b905081810360208301526117598186886116fc565b905061176860408301856111f7565b6117756060830184611138565b979650505050505050565b7f4e6f74204f7261636c6500000000000000000000000000000000000000000000600082015250565b60006117b6600a836114fb565b91506117c182611780565b602082019050919050565b600060208201905081810360008301526117e5816117a9565b9050919050565b7f526f756e6420646f6573206e6f74206578697374000000000000000000000000600082015250565b60006118226014836114fb565b915061182d826117ec565b602082019050919050565b6000602082019050818103600083015261185181611815565b9050919050565b7f526f756e6420616c7265616479207265736f6c76656400000000000000000000600082015250565b600061188e6016836114fb565b915061189982611858565b602082019050919050565b600060208201905081810360008301526118bd81611881565b9050919050565b7f526f756e64206e6f74207265736f6c7665640000000000000000000000000000600082015250565b60006118fa6012836114fb565b9150611905826118c4565b602082019050919050565b60006020820190508181036000830152611929816118ed565b9050919050565b7f496e76616c69642077696e6e6572207374617465000000000000000000000000600082015250565b60006119666014836114fb565b915061197182611930565b602082019050919050565b6000602082019050818103600083015261199581611959565b9050919050565b7f4e6f2077696e6e696e677320746f20636c61696d000000000000000000000000600082015250565b60006119d26014836114fb565b91506119dd8261199c565b602082019050919050565b60006020820190508181036000830152611a01816119c5565b9050919050565b6000611a138261112e565b9150611a1e8361112e565b9250828202611a2c8161112e565b91508282048414831517611a4357611a42611699565b5b5092915050565b7f4e487b7100000000000000000000000000000000000000000000000000000000600052601260045260246000fd5b6000611a848261112e565b9150611a8f8361112e565b925082611a9f57611a9e611a4a565b5b828204905092915050565b600081905092915050565b50565b6000611ac5600083611aaa565b9150611ad082611ab5565b600082019050919050565b6000611ae682611ab8565b9150819050919050565b7f4661696c656420746f2073656e64204574686572000000000000000000000000600082015250565b6000611b266014836114fb565b9150611b3182611af0565b602082019050919050565b60006020820190508181036000830152611b5581611b19565b9050919050565b60006060820190508181036000830152611b778187896116fc565b90508181036020830152611b8c8185876116fc565b9050611b9b6040830184611138565b969550505050505056fea2646970667358221220b4855700f38a9c031ab6b12a9d860baedd62e24c9f1d0fc74795a4c8d06e8b9a64736f6c63430008140033",
  "linkReferences": {},
  "deployedLinkReferences": {}
}